:020000040800F2
:10000000D00600208901000889120008111100089B
:100010008512000845020008AD120008000000002B
:100020000000000000000000000000009512000821
:1000300049020008000000008D1200089912000813
:10004000A3010008A3010008A3010008A301000800
:10005000A301000891120008A3010008A3010008F1
:10006000A3010008A3010008A3010008A3010008E0
:10007000A3010008A3010008A3010008A3010008D0
:10008000A3010008A3010008A3010008A3010008C0
:10009000A3010008A3010008A3010008A3010008B0
:1000A000A3010008A3010008A3010008A3010008A0
:1000B000A1120008A3010008A3010008A301000881
:1000C000A3010008A3010008A3010008A301000880
:1000D000A3010008A3010008A3010008A301000870
:1000E000A3010008A3010008A301000800F002F822
:1000F00000F03AF80AA090E8000C82448344AAF188
:100100000107DA4501D100F02FF8AFF2090EBAE885
:100110000F0013F0010F18BFFB1A43F0010318473B
:100120008C160000AC160000103A24BF78C878C1C5
:10013000FAD8520724BF30C830C144BF04680C60ED
:10014000704700000023002400250026103A28BF35
:1001500078C1FBD8520728BF30C148BF0B60704739
:100160001FB51FBD10B510BD00F031F81146FFF7E7
:10017000F7FF01F0D1FA00F04FF803B4FFF7F2FFF8
:1001800003BC00F057F800000948804709480047C1
:10019000FEE7FEE7FEE7FEE7FEE7FEE7FEE7FEE737
:1001A000FEE7FEE704480549054A064B7047000094
:1001B0009D120008ED000008D0000020D0060020AD
:1001C000D0020020D002002070477047704775466B
:1001D00000F02CF8AE4605006946534620F00700B3
:1001E000854618B020B5FFF7DDFFBDE820404FF091
:1001F00000064FF000074FF000084FF0000BAC4630
:10020000ACE8C009ACE8C009ACE8C009ACE8C0097A
:1002100021F007018D46704710B50446AFF300800A
:100220002046BDE81040FFF7A8BF00000048704717
:100230001000002001491820ABBEFEE72600020096
:1002400070470000FEE7000070470000EFF31080E9
:1002500072B600BFFEE700002DE9F04F82B041F218
:100260000042C4F201020E680423904208BF032337
:10027000002E009300F0F68040F2004C4FF6FF7E17
:100280000022C4F2010C0124C1F2100E4FF0000A4A
:100290004FF0000947E000BF012502F00C040F27D2
:1002A000A7402BEA070705FA04F43C4343F826402D
:1002B000D1F804B040F20C455FEACB23DCF80830FB
:1002C00054BF23EA080343EA0803C4F20105CCF84B
:1002D00008302B685FEA8B2454BF23EA080343EA03
:1002E00008032B605FEA8B34DCF8043054BF23EA48
:1002F000080343EA08035FEACB34CCF80430DCF8A7
:1003000000304FF0010454BF23EA080343EA080316
:10031000CCF800300E680AF1010A36FA0AF302F14D
:10032000040200F09F8004FA0AF816EA080FF1D0E0
:100330004B68734512DC122B56D8DFE803F0350BFF
:100340004549555555555555555555555555554D81
:10035000510000BFD1F80C9046E000BF4FF6FF758A
:10036000C1F22105AB420FDC0025C1F21105AB4201
:100370001AD00025C1F21205AB4215D00025C1F2FA
:100380002105AB4210D02FE00025C1F22205AB427F
:100390000AD00025C1F23105AB4205D00025C1F2DB
:1003A0003205AB4220D100BF8B684BB1012B14BF8B
:1003B000C0F81480C0F810804FF0080914E000BFA6
:1003C0004FF0040910E000BFCB6803F108090BE00F
:1003D0004FF0000908E000BFCB6803F1040903E017
:1003E000CB6803F10C0900BF13460546BAF1080FAC
:1003F00024BF203B04352E680F279F40BE4309FAD7
:1004000003F333432B60CB79DB067FF583AF41F2F7
:100410001804C4F2020423684FEA9A0643F0010369
:100420002360236840F6000403F001030193019B5D
:10043000ACF57E7353F826B0C4F20104A0420FD08D
:1004400040F60044C4F20104A0423FF425AF41F25B
:100450000004C4F20104009DA04208BF02251CE76D
:1004600000251AE702B0BDE8F08F00008068084060
:1004700018BF012070470000002A08BF090401616D
:100480007047000040F2CC00C2F2000000687047E4
:1004900040F2000040F2CC01C2F20000C2F20001C2
:1004A00000780A68104408607047000080B542F286
:1004B0000000C4F20200016841F010010160032055
:1004C00000F092F8002000F005F800F027F8002076
:1004D00080BD000070B540F20006C2F2000640F296
:1004E00008013278C2F200014FF47A730968B3FB55
:1004F000F2F20446B1FBF2F1084600F03FFB0F2C8C
:100500004FF0010508D838B94FF0FF3021460022DE
:10051000002500F03DF87460284670BD80B582B0BB
:1005200041F21800C4F202000168002241F001010A
:100530000160016801F0010101910199416841F0F8
:10054000805141604068002100F080500090009888
:10055000052000F01DF8052000F00AF80420C4F280
:1005600001000168022262F31A61016002B080BDDD
:10057000002848BF704700F01F01012202FA01F174
:100580004EF200124009CEF2000242F820107047ED
:1005900010B54EF60C5CCEF2000CDCF80030C3F364
:1005A000022E8EF00704042C28BF0424BEF103039E
:1005B0004FF0FF3E0EFA04F438BF0023A1439940E8
:1005C0000EFA03F39A43114300F00F02043A624417
:1005D00009010C3200F16043B0F1FF3FC8BF03F5E1
:1005E0006442117010BD00004EF60C51CEF20001B5
:1005F0000A684FF6FF031A4060F30A2242F0806057
:1006000040F0FD70086070472DE9F04381B000288C
:1006100000F0858042F20008C4F202080446D8F8CF
:1006200000000D4600F0070088420CD2D8F8000008
:1006300020F007002843C8F80000D8F8000000F0B8
:100640000700A8426BD1206841F204098107C4F277
:10065000020917D5410705D5D9F8001041F4E0612A
:10066000C9F80010010705D5D9F8001041F4605110
:10067000C9F80010D9F80010A26821F0F001114368
:10068000C9F80010C00741D1D8F8000000F00700F9
:10069000A8420CD9D8F8000020F007002843C8F879
:1006A0000000D8F8000000F00700A84237D1206809
:1006B000410707D5D9F80010E26821F4E061114341
:1006C000C9F80010000708D5D9F80000216920F406
:1006D000605040EAC100C9F80000D9F8002002F0DB
:1006E0000C00082841F20020C0F27A0050D141F2FB
:1006F0009C73C2F38341C0F60003595CD2033BD420
:1007000040F60010C0F23D00484341E06068022816
:100710000AD001282AD159F8041C890308D40120E1
:1007200001B0BDE8F08300BF59F8041C8901F6D57B
:10073000D9F8001021F003010843C9F80000FFF7C1
:10074000A1FE064641F28837D9F80000616800F042
:100750000C00B0EB810F97D0FFF794FE801BB842DE
:10076000F2D9032001B0BDE8F08300BF59F8041CA2
:100770008907D4D5DCE700BFD9F8002041F29A738D
:10078000C2F34042C0F600039A5C4843B0FBF2F06B
:10079000D9F8001041F28A72C1F30311C0F60002C9
:1007A000515C40F2080220FA01F140F20400C2F26A
:1007B00000000068C2F200021160FFF78BFE00200B
:1007C00001B0BDE8F08300002DE9F04182B00028BF
:1007D00068D00446007841F20006C007C4F2020661
:1007E00025D0706800F00C0004281BD0706800F061
:1007F0000C00082802D17068C00313D46068002878
:1008000000F06881B0F5A02F00F07C81B0F5803F4A
:1008100000F07C81306820F480303060306820F453
:10082000802076E13068800301D56068D0B32078FD
:10083000800718D5706810F00C0F07D0706800F0B2
:100840000C0008286ED17068C0036BD43068800734
:1008500002D52069012825D13068616920F0F800AF
:1008600040EAC1003060207800071FD4207840079C
:1008700032D4E56995B1706800F00C00082840F0AA
:100880008F80012D0ED07068216A00F480328A4278
:1008900008D1616A00F47010884203D1002002B0D0
:1008A000BDE8F081012002B0BDE8F081A069002818
:1008B00062D00020C4F242200121C0F88014FFF76A
:1008C000E1FD0546706A800700F18C80FFF7DAFDD4
:1008D000401B0228F6D92AE1F06910F0805808D1AF
:1008E000F06940F08050F061F06900F080500090B5
:1008F000009847F20007C4F200073868C00529D401
:10090000386840F480703860FFF7BCFD054600BFD2
:100910003868C0051ED4FFF7B5FD401B6428F7D921
:1009200005E100BF2069002840F20000C4F2422027
:1009300000F0828001210160FFF7A4FD054600BFA1
:10094000306880073FF588AFFFF79CFD401B022809
:10095000F6D9ECE0E068002800F08080052800F07F
:100960009780012800F09880306A20F00100306202
:10097000306A20F0040092E00020C4F242200021FE
:10098000C0F88014FFF77EFD054600BF706A80073F
:100990007FF56CAFFFF776FD401B0228F6D9C6E065
:1009A0000027C4F2422700203866FFF76BFD022DB6
:1009B00005460BD13068800140F1BE80FFF762FD33
:1009C000401B02284FF00300F4D968E7306880012B
:1009D0007FF564AFFFF756FD401B02284FF0030080
:1009E000F4D95CE740F20800C2F20000006844F667
:1009F000D351C1F26201A0FB0101480A019000BF7E
:100A000000BF0198411E002801913FF42FAF00BFA5
:100A10000198411E002801913FF428AF00BF0198C2
:100A2000411E002801913FF421AF00BF0198411EF3
:100A300000280191E4D119E700210160FFF722FDB0
:100A4000054600BF306880077FF50DAFFFF71AFD40
:100A5000401B02284FF00300F4D920E7306A20F051
:100A600001003062306A20F004003062FFF70AFDB6
:100A7000054641F2883700BF306A800720D5FFF76E
:100A800001FD401BB8424FF00300F5D907E700BF56
:100A9000306A40F004003062306A40F00100306299
:100AA000FFF7F0FC054641F2883700BF306A800747
:100AB00006D4FFF7E7FC401BB842F7D937E000BF88
:100AC000B8F1000F7FF4D5AEF06920F08050F061EE
:100AD000CFE600BF306820F480303060306820F40A
:100AE00080203060FFF7CEFC054600BF30688003F1
:100AF0007FF59DAEFFF7C6FC401B64284FF0030056
:100B0000F4D9CCE6306840F480203060306840F49E
:100B100080303060FFF7B6FC054600BF30688003C8
:100B20003FF585AEFFF7AEFC401B6428F6D90320E5
:100B300002B0BDE8F08100BF206AB0F5803F05D16A
:100B40007168A26821F40031114371607168626AB2
:100B500021F4741110430843706001203866FFF7D8
:100B600091FC0446306880013FF598AEFFF78AFC9F
:100B7000001B02284FF00300F4D990E6411E00202C
:100B8000B0EB116F1CBF012070474EF21002CEF285
:100B9000000251604EF62351CEF20001F0230B709B
:100BA0000721906011607047704700007047000097
:100BB00010B590F83C20012A4FF0020233D080F8A3
:100BC0003D200268D2F804E0D2F808C00C682EF08C
:100BD0007003234340F2FF74C4F20004A242536046
:100BE0000ADCB2F1804F13D040F20043C4F200039C
:100BF0009A420DD011E000BF42F60043C4F2010357
:100C00009A4205D040F60003C4F200039A4204D190
:100C100049682CF08003194391600121002280F87B
:100C20003D1080F83C20104610BD0000002804BF95
:100C30000120704710B5044690F83D0028B9002007
:100C400084F83C00204600F067F8022084F83D005C
:100C5000206840F2FF730268C4F2000342F6004CC1
:100C60009842C4F2010C15DCB0F1804F1AD040F26A
:100C70000041C4F20001884214D0984218DCB0F15F
:100C8000804F1DD040F20041C4F20001884217D0CD
:100C90001AE000BF604505D040F60001C4F2000133
:100CA0008842EAD1A16822F070020A439842E6DD48
:100CB000604505D040F60001C4F20001884203D12E
:100CC000216922F440720A43A36922F08001D4F81A
:100CD00004E0E268194360450160C262C0F828E0A0
:100CE00002D16169CCF8301001214161002084F803
:100CF000461084F83E1084F83F1084F8401084F8C1
:100D0000411084F8421084F8431084F8441084F8A9
:100D1000451084F83D1010BD80B582B00068B0F178
:100D2000804F1CBF02B080BD41F21C00C4F2020023
:100D30000168002241F0010101600068002100F01B
:100D40000100019001981C20FFF722FC1C2002B03A
:100D5000BDE88040FFF70CBC90F83D1001291CBF96
:100D600001207047022180F83D10006840F2FF72B8
:100D7000C168C4F20002904241F00101C16009DC87
:100D8000B0F1804F12D040F20041C4F2000188421D
:100D90000CD012E042F60041C4F20101884205D0B5
:100DA00040F60001C4F20001884206D1816801F0DA
:100DB0000701062904BF00207047016841F00101C6
:100DC000016000207047000080B590F83C20012AA7
:100DD0004FF0020200F0C28080F83D20D0F800C041
:100DE0004FF67772DCF8083023EA0202CCF80820CC
:100DF0000B684F2B28DC1F2B44DD202B45D0302BDC
:100E000043D0402B40F0AC80D1F804E0C968DCF856
:100E10002030DCF8202022F00102CCF82020DCF881
:100E2000182022F0F00242EA011123F00A0242EAFD
:100E30000E02CCF81810CCF82020DCF8081041F095
:100E4000470121F0300180E06F2B27DDB3F5005F13
:100E500048D0B3F5805F7AD0702B40F08180D1E923
:100E600001E3C968DCF8082043EA0E0322F47F425C
:100E700043EA01211143CCF80810DCF8081041F0D6
:100E8000770162E00BB1102B6AD1DCF8081021F079
:100E90007001194341F0070157E000BF502B35D0D6
:100EA000602B5DD1D1F804E0C968DCF82030DCF8B3
:100EB000202022F01002CCF82020DCF8182022F4A8
:100EC000704242EA013123F0A00242EA0E12CCF84D
:100ED0001810CCF82020DCF8081041F0670121F050
:100EE000100132E0D1E901E3C968DCF8082043EAE7
:100EF0000E0322F47F4243EA01211143CCF808108B
:100F0000DCF8081041F480411FE000BFD1F804E094
:100F1000C968DCF82030DCF8202022F00102CCF88F
:100F20002020DCF8182022F0F00242EA011123F020
:100F30000A0242EA0E02CCF81810CCF82020DCF8A5
:100F4000081041F0570121F02001CCF808100022D0
:100F5000012180F83D10002180F83C10104680BD32
:100F60000122F5E77047000010B5016804460869E2
:100F7000800744BFC8685FEA807039D408694007B9
:100F800044BFC8685FEA40703ED40869000744BFA8
:100F9000C8685FEA007045D40869C00644BFC868E5
:100FA0005FEAC0604AD40869C0071CBFC8685FEA2E
:100FB000C07051D10869000644BFC8685FEA00608C
:100FC00052D40869400644BFC8685FEA406053D401
:100FD0000869800646BFC8685FEA806010BD6FF090
:100FE000200220460A61BDE81040FFF7DFBD00BFC8
:100FF0006FF002000861012020778869800743D0E4
:101000002046FFF7AFFF45E06FF0040008610220C3
:101010002077886910F4407F40D02046FFF7A2FF78
:1010200042E000BF6FF00800086104202077C86923
:1010300080073DD02046FFF795FF3FE06FF010009E
:10104000086108202077C86910F4407F3AD0204614
:10105000FFF788FF3CE000BF6FF001000861204609
:1010600000F03EF82168A5E76FF080000861204697
:10107000FFF79AFD2168A4E76FF040000861204661
:1010800000F044F82168A3E7204600F025F8204648
:1010900000F024F82168002020776FE7204600F058
:1010A0001BF8204600F01AF82168002020776CE732
:1010B000204600F011F8204600F010F821680020CA
:1010C000207769E7204600F007F8204600F006F890
:1010D00021680020207766E7704700007047000015
:1010E00040F28401C2F2000100680968884218BF1A
:1010F000704740F27000C2F200008178027801313E
:10110000CBB29A1A18BF0A46827070477047000027
:10111000FEE700002DE9F04F85B041F21800C4F25F
:101120000200016840F6000841F01001016001680A
:10113000C4F2010801F0100101910199016808F55C
:10114000006741F0200101600168012201F02001E7
:101150000191019901684FF4005641F004010160CA
:101160000168012501F0040101910199016841F034
:101170000801016000684FF4005100F00800019080
:1011800001983846FFF778F9404649F62071012268
:1011900049F6207BFFF770F908F58064204647F296
:1011A0003801012247F23809FFF766F9CDE90165F8
:1011B00001AE4FF0030A384631460395CDF810A032
:1011C000FFF74AF81E200190002740463146CDE93E
:1011D0000275FFF741F840463146CDE901B5CDE94A
:1011E000035AFFF739F840F6C370CDE901072046EE
:1011F00031460395FFF730F820463146CDE9019599
:10120000CDE9035AFFF728F805B0BDE8F08F0000DC
:1012100080B586B040F284000021C2F200004FF099
:10122000630C0591CDE90311CDE900114FF0804227
:1012300040F2CF23C0E9021C01618021C0E90023F4
:101240008161FFF7F3FC002818BFFEF7FFFF4FF4A2
:101250008050029040F28400C2F2000002A9FFF721
:10126000B3FD002818BFFEF7F1FF40F28400C2F280
:1012700000006946FFF79CFC002818BFFEF7E6FF58
:1012800006B080BDFEE70000FEE7000070470000EA
:101290007047000070470000FFF7FAB87047000081
:1012A00040F28400C2F20000FFF75EBEFEE70000DD
:1012B000B0B582B021F07F4401AD2846012122461D
:1012C00000F094F928460221224600F08FF92846C2
:1012D0000321224600F08AF928460421224600F024
:1012E00085F902B0B0BD0000F0B581B0481EC0B2B3
:1012F000052809D811A10A5C12A10E5C13A10D5C8E
:1013000014A10C5C04E000BF00220026002500248C
:101310006F463846012100F007F93846022132466F
:1013200000F002F9384603212A4600F0FDF838465D
:101330000421224600F0F8F801B0F0BD01020102DC
:10134000020100000102010201020000010202018B
:10135000020100000102020101020000B0B540F6E6
:101360000005C4F201050C46284620210122FFF7A2
:1013700083F800BF28461021FFF778F80128F9D03C
:10138000284620210022FFF777F828460221FFF7A0
:101390006DF80138B0FA80F04009607228460421E7
:1013A000FFF764F80138B0FA80F04009A0722846CF
:1013B0000821FFF75BF80138B0FA80F04009E072CD
:1013C000B0BD000010B508780C4648B1607838B15F
:1013D000A078B0FA80F04109607920B90EE000BF32
:1013E0000121607950B1A27942B1E279B2FA82F278
:1013F00052095140012909D104E000BF01225140A6
:10140000012903D12179C9B1E178B9B1A178C9B174
:10141000E0B1002021462072FFF7A0FF607A01288A
:1014200018D058BBA07A01281CD038BBE07A01281C
:1014300022D018BB0020207210BD00BF03202072F4
:1014400010BD00BF0120207210BD00BF022020721D
:1014500010BD00BFA07A012808D078B9E07A68B939
:1014600001200AE0E07A48B9022006E0E07A00288C
:1014700018BF10BD032000E00420207210BD000042
:10148000B0B540F60045C4F201050C4628460121DE
:10149000FEF7ECFF0138B0FA80F0400920702846D2
:1014A0000221FEF7E3FF0138B0FA80F040096070D6
:1014B00028464FF48061FEF7D9FF0138B0FA80F07A
:1014C0004009A07028464FF40061FEF7CFFF0138B5
:1014D000B0FA80F04009E07028464021FEF7C6FFD0
:1014E0000138B0FA80F04009207128468021FEF7CB
:1014F000BDFF0138B0FA80F04009607128464FF412
:101500008071FEF7B3FF0138B0FA80F04009A07196
:1015100028464FF40071FEF7A9FF0138B0FA80F0B9
:101520004009E071B0BD0000B0B5022A04D0012A24
:1015300006D10024012205E00124002202E000BFC0
:1015400000220024481E032888BFB0BD0FF204010A
:10155000DFE800F0023A162840F60000C4F201006D
:1015600000F5806528464FF48051FEF785FF284638
:101570004FF400512246BDE8B040FEF77DBF00BFEA
:1015800040F60005C4F2010528464FF40061FEF75D
:1015900073FF28464FF480512246BDE8B040FEF765
:1015A0006BBF00BF40F60000C4F2010000F580658B
:1015B00028460821FEF760FF284610212246BDE894
:1015C000B040FEF759BF00BF40F60005C4F2010568
:1015D00028464FF48071FEF74FFF28464FF4007104
:1015E0002246BDE8B040FEF747BF000010B54B1ED5
:1015F000032B88BF10BD0FF20E0101EB8304100A0C
:10160000110CDFE803F00335172700BF40F6000494
:10161000C9B2C0B2C4F20104814204F580604FF443
:10162000804135D20122FEF727FF04F500604FF418
:10163000005127E0C9B2C0B2814240F60000C4F2B6
:1016400001004FF400411DD30022BDE81040FEF719
:1016500013BF00BFC9B2C0B2814240F60000C4F25D
:10166000010000F580604FF020010BD3ECE700BFD4
:10167000C9B2C0B2814240F60000C4F201004FF48A
:101680008061E1D20122BDE81040FEF7F5BE00BF47
:101690000022FEF7F1FE04F500604FF40051002235
:1016A000BDE81040FEF7E8BE80B540F27000C2F21F
:1016B00000000021817040F20A21018040F6000004
:1016C000C4F2010020210022FEF7D6FE40F2840081
:1016D000C2F20000BDE88040FFF73EBB70B540F2AB
:1016E0007006C2F20006741DB51D20462946FFF79C
:1016F000C7FE20462946FFF765FEB0783188341DC5
:1017000041EA00412046FFF7D3FDB17B2046BDE80A
:101710007040FFF7E9BD000090B0FEF7C7FE00245F
:101720000120CDE90B44CDE9094406900A904FF41D
:10173000E0104FF4803102250F9006A8CDE9071480
:10174000CDE90D51FFF740F820B1EFF3108072B6EC
:10175000FEE700BF0F20CDE901054FF48060CDE921
:10176000040401A802210394FEF74EFF20B1EFF319
:10177000108072B6FEE700BFFFF7CCFCFFF748FD14
:10178000FFF792FFFFF7AAFFFCE700000000000050
:101790000000010203040607080901020203040510
:1017A000060708090A0B0C0D0E0F1010D0170008C1
:1017B000000000201000000028010008E0170008C9
:1017C00010000020C00600004401000800000000D6
:1017D00001000000100000000024F40000000000E0
:04000005080000ED02
:00000001FF
