:020000040800F2
:1000000010070020890100086D140008C5120008BF
:10001000691400084502000891140008000000005F
:10002000000000000000000000000000791400083B
:100030004902000800000000711400087D14000847
:10004000A3010008A3010008A3010008A301000800
:10005000A301000875140008A3010008A30100080B
:10006000A3010008A3010008A3010008A3010008E0
:10007000A3010008A3010008A3010008A3010008D0
:10008000A3010008A3010008A3010008A3010008C0
:10009000A3010008A3010008A3010008A3010008B0
:1000A000A3010008A3010008A3010008A3010008A0
:1000B00085140008A3010008A3010008A30100089B
:1000C000A3010008A3010008A3010008A301000880
:1000D000A3010008A3010008A3010008A301000870
:1000E000A3010008A3010008A301000800F002F822
:1000F00000F03AF80AA090E8000C82448344AAF188
:100100000107DA4501D100F02FF8AFF2090EBAE885
:100110000F0013F0010F18BFFB1A43F0010318473B
:100120006417000084170000103A24BF78C878C113
:10013000FAD8520724BF30C830C144BF04680C60ED
:10014000704700000023002400250026103A28BF35
:1001500078C1FBD8520728BF30C148BF0B60704739
:100160001FB51FBD10B510BD00F031F81146FFF7E7
:10017000F7FF01F037FB00F04FF803B4FFF7F2FF91
:1001800003BC00F057F800000948804709480047C1
:10019000FEE7FEE7FEE7FEE7FEE7FEE7FEE7FEE737
:1001A000FEE7FEE704480549054A064B7047000094
:1001B00081140008ED000008100100201007002045
:1001C00010030020100300207047704770477546E9
:1001D00000F02CF8AE4605006946534620F00700B3
:1001E000854618B020B5FFF7DDFFBDE820404FF091
:1001F00000064FF000074FF000084FF0000BAC4630
:10020000ACE8C009ACE8C009ACE8C009ACE8C0097A
:1002100021F007018D46704710B50446AFF300800A
:100220002046BDE81040FFF7A8BF00000048704717
:100230001000002001491820ABBEFEE72600020096
:1002400070470000FEE7000070470000EFF31080E9
:1002500072B600BFFEE700002DE9F04F82B041F218
:100260000042C4F201020E680423904208BF032337
:10027000002E009300F0F68040F2004C4FF6FF7E17
:100280000022C4F2010C0124C1F2100E4FF0000A4A
:100290004FF0000947E000BF012502F00C040F27D2
:1002A000A7402BEA070705FA04F43C4343F826402D
:1002B000D1F804B040F20C455FEACB23DCF80830FB
:1002C00054BF23EA080343EA0803C4F20105CCF84B
:1002D00008302B685FEA8B2454BF23EA080343EA03
:1002E00008032B605FEA8B34DCF8043054BF23EA48
:1002F000080343EA08035FEACB34CCF80430DCF8A7
:1003000000304FF0010454BF23EA080343EA080316
:10031000CCF800300E680AF1010A36FA0AF302F14D
:10032000040200F09F8004FA0AF816EA080FF1D0E0
:100330004B68734512DC122B56D8DFE803F0350BFF
:100340004549555555555555555555555555554D81
:10035000510000BFD1F80C9046E000BF4FF6FF758A
:10036000C1F22105AB420FDC0025C1F21105AB4201
:100370001AD00025C1F21205AB4215D00025C1F2FA
:100380002105AB4210D02FE00025C1F22205AB427F
:100390000AD00025C1F23105AB4205D00025C1F2DB
:1003A0003205AB4220D100BF8B684BB1012B14BF8B
:1003B000C0F81480C0F810804FF0080914E000BFA6
:1003C0004FF0040910E000BFCB6803F108090BE00F
:1003D0004FF0000908E000BFCB6803F1040903E017
:1003E000CB6803F10C0900BF13460546BAF1080FAC
:1003F00024BF203B04352E680F279F40BE4309FAD7
:1004000003F333432B60CB79DB067FF583AF41F2F7
:100410001804C4F2020423684FEA9A0643F0010369
:100420002360236840F6000403F001030193019B5D
:10043000ACF57E7353F826B0C4F20104A0420FD08D
:1004400040F60044C4F20104A0423FF425AF41F25B
:100450000004C4F20104009DA04208BF02251CE76D
:1004600000251AE702B0BDE8F08F00008068084060
:1004700018BF012070470000002A08BF090401616D
:100480007047000040F20C10C2F200000068704794
:1004900040F2000040F20C11C2F20000C2F2000172
:1004A00000780A68104408607047000080B542F286
:1004B0000000C4F20200016841F010010160032055
:1004C00000F092F8002000F005F800F027F8002076
:1004D00080BD000070B540F20006C2F2000640F296
:1004E00008013278C2F200014FF47A730968B3FB55
:1004F000F2F20446B1FBF2F1084600F067FB0F2C64
:100500004FF0010508D838B94FF0FF3021460022DE
:10051000002500F03DF87460284670BD80B582B0BB
:1005200041F21800C4F202000168002241F001010A
:100530000160016801F0010101910199416841F0F8
:10054000805141604068002100F080500090009888
:10055000052000F01DF8052000F00AF80420C4F280
:1005600001000168022262F31A61016002B080BDDD
:10057000002848BF704700F01F01012202FA01F174
:100580004EF200124009CEF2000242F820107047ED
:1005900010B54EF60C5CCEF2000CDCF80030C3F364
:1005A000022E8EF00704042C28BF0424BEF103039E
:1005B0004FF0FF3E0EFA04F438BF0023A1439940E8
:1005C0000EFA03F39A43114300F00F02043A624417
:1005D00009010C3200F16043B0F1FF3FC8BF03F5E1
:1005E0006442117010BD00004EF60C51CEF20001B5
:1005F0000A684FF6FF031A4060F30A2242F0806057
:1006000040F0FD70086070472DE9F04381B000288C
:1006100000F0858042F20008C4F202080446D8F8CF
:1006200000000D4600F0070088420CD2D8F8000008
:1006300020F007002843C8F80000D8F8000000F0B8
:100640000700A8426BD1206841F204098107C4F277
:10065000020917D5410705D5D9F8001041F4E0612A
:10066000C9F80010010705D5D9F8001041F4605110
:10067000C9F80010D9F80010A26821F0F001114368
:10068000C9F80010C00741D1D8F8000000F00700F9
:10069000A8420CD9D8F8000020F007002843C8F879
:1006A0000000D8F8000000F00700A84237D1206809
:1006B000410707D5D9F80010E26821F4E061114341
:1006C000C9F80010000708D5D9F80000216920F406
:1006D000605040EAC100C9F80000D9F8002002F0DB
:1006E0000C00082841F20020C0F27A0050D141F6F7
:1006F0007403C2F38341C0F60003595CD2033BD4B8
:1007000040F60010C0F23D00484341E06068022816
:100710000AD001282AD159F8041C890308D40120E1
:1007200001B0BDE8F08300BF59F8041C8901F6D57B
:10073000D9F8001021F003010843C9F80000FFF7C1
:10074000A1FE064641F28837D9F80000616800F042
:100750000C00B0EB810F97D0FFF794FE801BB842DE
:10076000F2D9032001B0BDE8F08300BF59F8041CA2
:100770008907D4D5DCE700BFD9F8002041F6720321
:10078000C2F34042C0F600039A5C4843B0FBF2F06B
:10079000D9F8001041F65A02C1F30311C0F6000265
:1007A000515C40F2080220FA01F140F20400C2F26A
:1007B00000000068C2F200021160FFF78BFE00200B
:1007C00001B0BDE8F083000040F2080041F20401EE
:1007D000C2F20000C4F202010068096841F66A0230
:1007E000C1F30221C0F60002515CC840704700000E
:1007F00040F2080041F20401C2F20000C4F202011A
:100800000068096841F66A02C1F3C221C0F600021D
:10081000515CC840704700002DE9F04182B00028CB
:1008200068D00446007841F20006C007C4F2020610
:1008300025D0706800F00C0004281BD0706800F010
:100840000C00082802D17068C00313D46068002827
:1008500000F06881B0F5A02F00F07C81B0F5803FFA
:1008600000F07C81306820F480303060306820F403
:10087000802076E13068800301D56068D0B32078AD
:10088000800718D5706810F00C0F07D0706800F062
:100890000C0008286ED17068C0036BD430688007E4
:1008A00002D52069012825D13068616920F0F8005F
:1008B00040EAC1003060207800071FD4207840074C
:1008C00032D4E56995B1706800F00C00082840F05A
:1008D0008F80012D0ED07068216A00F480328A4228
:1008E00008D1616A00F47010884203D1002002B080
:1008F000BDE8F081012002B0BDE8F081A0690028C8
:1009000062D00020C4F242200121C0F88014FFF719
:10091000B9FD0546706A800700F18C80FFF7B2FDD3
:10092000401B0228F6D92AE1F06910F0805808D15E
:10093000F06940F08050F061F06900F08050009064
:10094000009847F20007C4F200073868C00529D4B0
:10095000386840F480703860FFF794FD054600BFAA
:100960003868C0051ED4FFF78DFD401B6428F7D9F9
:1009700005E100BF2069002840F20000C4F24220D7
:1009800000F0828001210160FFF77CFD054600BF79
:10099000306880073FF588AFFFF774FD401B0228E1
:1009A000F6D9ECE0E068002800F08080052800F02F
:1009B0009780012800F09880306A20F001003062B2
:1009C000306A20F0040092E00020C4F242200021AE
:1009D000C0F88014FFF756FD054600BF706A800717
:1009E0007FF56CAFFFF74EFD401B0228F6D9C6E03D
:1009F0000027C4F2422700203866FFF743FD022D8E
:100A000005460BD13068800140F1BE80FFF73AFD0A
:100A1000401B02284FF00300F4D968E730688001DA
:100A20007FF564AFFFF72EFD401B02284FF0030057
:100A3000F4D95CE740F20800C2F20000006844F616
:100A4000D351C1F26201A0FB0101480A019000BF2D
:100A500000BF0198411E002801913FF42FAF00BF55
:100A60000198411E002801913FF428AF00BF019872
:100A7000411E002801913FF421AF00BF0198411EA3
:100A800000280191E4D119E700210160FFF7FAFC89
:100A9000054600BF306880077FF50DAFFFF7F2FC19
:100AA000401B02284FF00300F4D920E7306A20F001
:100AB00001003062306A20F004003062FFF7E2FC8F
:100AC000054641F2883700BF306A800720D5FFF71E
:100AD000D9FC401BB8424FF00300F5D907E700BF2F
:100AE000306A40F004003062306A40F00100306249
:100AF000FFF7C8FC054641F2883700BF306A80071F
:100B000006D4FFF7BFFC401BB842F7D937E000BF5F
:100B1000B8F1000F7FF4D5AEF06920F08050F0619D
:100B2000CFE600BF306820F480303060306820F4B9
:100B300080203060FFF7A6FC054600BF30688003C8
:100B40007FF59DAEFFF79EFC401B64284FF003002D
:100B5000F4D9CCE6306840F480203060306840F44E
:100B600080303060FFF78EFC054600BF30688003A0
:100B70003FF585AEFFF786FC401B6428F6D90320BD
:100B800002B0BDE8F08100BF206AB0F5803F05D11A
:100B90007168A26821F40031114371607168626A62
:100BA00021F4741110430843706001203866FFF788
:100BB00069FC0446306880013FF598AEFFF762FC9F
:100BC000001B02284FF00300F4D990E6411E0020DC
:100BD000B0EB116F1CBF012070474EF21002CEF235
:100BE000000251604EF62351CEF20001F0230B704B
:100BF0000721906011607047704700007047000047
:100C000010B590F83C20012A4FF0020233D080F852
:100C10003D200268D2F804E0D2F808C00C682EF03B
:100C20007003234340F2FF74C4F20004A2425360F5
:100C30000ADCB2F1804F13D040F20043C4F200034B
:100C40009A420DD011E000BF42F60043C4F2010306
:100C50009A4205D040F60003C4F200039A4204D140
:100C600049682CF08003194391600121002280F82B
:100C70003D1080F83C20104610BD0000002804BF45
:100C80000120704710B5044690F83D0028B90020B7
:100C900084F83C00204600F067F8022084F83D000C
:100CA000206840F2FF730268C4F2000342F6004C71
:100CB0009842C4F2010C15DCB0F1804F1AD040F21A
:100CC0000041C4F20001884214D0984218DCB0F10F
:100CD000804F1DD040F20041C4F20001884217D07D
:100CE0001AE000BF604505D040F60001C4F20001E3
:100CF0008842EAD1A16822F070020A439842E6DDF8
:100D0000604505D040F60001C4F20001884203D1DD
:100D1000216922F440720A43A36922F08001D4F8C9
:100D200004E0E268194360450160C262C0F828E04F
:100D300002D16169CCF8301001214161002084F8B2
:100D4000461084F83E1084F83F1084F8401084F870
:100D5000411084F8421084F8431084F8441084F859
:100D6000451084F83D1010BD80B582B00068B0F128
:100D7000804F1CBF02B080BD41F21C00C4F20200D3
:100D80000168002241F0010101600068002100F0CB
:100D90000100019001981C20FFF7FAFB1C2002B013
:100DA000BDE88040FFF7E4BB90F83D1001291CBF6F
:100DB00001207047022180F83D10006840F2FF7268
:100DC000C168C4F20002904241F00101C16009DC37
:100DD000B0F1804F12D040F20041C4F200018842CD
:100DE0000CD012E042F60041C4F20101884205D065
:100DF00040F60001C4F20001884206D1816801F08A
:100E00000701062904BF00207047016841F0010175
:100E1000016000207047000080B590F83C20012A56
:100E20004FF0020200F0C28080F83D20D0F800C0F0
:100E30004FF67772DCF8083023EA0202CCF808207B
:100E40000B684F2B28DC1F2B44DD202B45D0302B8B
:100E500043D0402B40F0AC80D1F804E0C968DCF806
:100E60002030DCF8202022F00102CCF82020DCF831
:100E7000182022F0F00242EA011123F00A0242EAAD
:100E80000E02CCF81810CCF82020DCF8081041F045
:100E9000470121F0300180E06F2B27DDB3F5005FC3
:100EA00048D0B3F5805F7AD0702B40F08180D1E9D3
:100EB00001E3C968DCF8082043EA0E0322F47F420C
:100EC00043EA01211143CCF80810DCF8081041F086
:100ED000770162E00BB1102B6AD1DCF8081021F029
:100EE0007001194341F0070157E000BF502B35D086
:100EF000602B5DD1D1F804E0C968DCF82030DCF863
:100F0000202022F01002CCF82020DCF8182022F457
:100F1000704242EA013123F0A00242EA0E12CCF8FC
:100F20001810CCF82020DCF8081041F0670121F0FF
:100F3000100132E0D1E901E3C968DCF8082043EA96
:100F40000E0322F47F4243EA01211143CCF808103A
:100F5000DCF8081041F480411FE000BFD1F804E044
:100F6000C968DCF82030DCF8202022F00102CCF83F
:100F70002020DCF8182022F0F00242EA011123F0D0
:100F80000A0242EA0E02CCF81810CCF82020DCF855
:100F9000081041F0570121F02001CCF80810002280
:100FA000012180F83D10002180F83C10104680BDE2
:100FB0000122F5E77047000010B501680446086992
:100FC000800744BFC8685FEA807039D40869400769
:100FD00044BFC8685FEA40703ED40869000744BF58
:100FE000C8685FEA007045D40869C00644BFC86895
:100FF0005FEAC0604AD40869C0071CBFC8685FEADE
:10100000C07051D10869000644BFC8685FEA00603B
:1010100052D40869400644BFC8685FEA406053D4B0
:101020000869800646BFC8685FEA806010BD6FF03F
:10103000200220460A61BDE81040FFF7DFBD00BF77
:101040006FF002000861012020778869800743D093
:101050002046FFF7AFFF45E06FF004000861022073
:101060002077886910F4407F40D02046FFF7A2FF28
:1010700042E000BF6FF00800086104202077C869D3
:1010800080073DD02046FFF795FF3FE06FF010004E
:10109000086108202077C86910F4407F3AD02046C4
:1010A000FFF788FF3CE000BF6FF0010008612046B9
:1010B00000F03EF82168A5E76FF080000861204647
:1010C000FFF79AFD2168A4E76FF040000861204611
:1010D00000F044F82168A3E7204600F025F82046F8
:1010E00000F024F82168002020776FE7204600F008
:1010F0001BF8204600F01AF82168002020776CE7E2
:10110000204600F011F8204600F010F82168002079
:10111000207769E7204600F007F8204600F006F83F
:1011200021680020207766E77047000070470000C4
:1011300040F28001C2F2000100680968884218BFCD
:10114000704740F27000C2F20000817802780131ED
:10115000CBB29A1A18BF0A468270704770470000D7
:10116000002804BF0120704770B5044690F83D0088
:1011700028B9002084F83C00204600F067F80220DF
:1011800084F83D002068D4E902C2D4F810E0C168B8
:1011900004F1180621F00C01C160016968CE21F448
:1011A0007C51194329433143114341F400610161EA
:1011B000C16841F20C629143626941EA0C0141EA63
:1011C0000E011143C160416943F60002C4F20102FD
:1011D00021F440719042416102D0FFF7F5FA01E03D
:1011E000FFF706FB6268192148439100B0FBF1F05C
:1011F00048F21F51C5F2EB11A0FB01235A096FF011
:10120000630302FB0300322303EB0010A0FB010188
:101210004FF4F07303EA1113206803EB0212C1F3D9
:10122000431111448160016921F4804101614169E8
:1012300021F02A014161C16841F40051C1600020E0
:101240000121206484F83D1070BD000070B586B0A7
:1012500040F60004C4F201040068A4F544410026ED
:101260008842049602D006B070BD00BF41F218005B
:10127000C4F20200416802AD41F4003141604168AE
:1012800001F4003101910199016841F0040101600C
:101290000068294600F00400019001981420029093
:1012A00002200390032005902046FEF7D5FF08207A
:1012B000CDE90206204629460496FEF7CDFF06B08A
:1012C00070BD0000FEE700002DE9F04F85B041F24F
:1012D0001800C4F20200016840F6004841F0100115
:1012E00001600168C4F2010801F010010191019947
:1012F000016808F5806641F0200101600168012263
:1013000001F020010191019901684FF4005741F06B
:10131000040101600168012401F0040101910199B7
:10132000016841F00801016000684FF4005100F0CD
:101330000800019001983046FFF79EF8404647F2BA
:101340003801012247F2380AFFF796F8A8F58065C0
:1013500028464FF41F4101224FF41F49FFF78CF834
:10136000CDE9017401AF4FF0030B304639460394C9
:10137000CDF810B0FEF770FF40F6C370019000206A
:10138000CDE9020040463946FEF766FF4046394641
:10139000CDE901A4CDE9034BFEF75EFF28463946AF
:1013A000CDE90194CDE9034BFEF756FF05B0BDE84A
:1013B000F08F000080B586B040F280000021C2F2BC
:1013C00000004FF0630C0591CDE90311CDE9001148
:1013D0004FF0804240F2CF23C0E9021C016180211E
:1013E000C0E900238161FFF749FC002818BFFEF720
:1013F0002DFF4FF48050029040F28000C2F20000B6
:1014000002A9FFF709FD002818BFFEF71FFF40F2F1
:101410008000C2F200006946FFF7F2FB002818BF07
:10142000FEF714FF06B080BD80B540F2C80044F25C
:101430000041C2F20000C4F2000100234FF00C0C86
:101440004FF4E13280E80E00C0E90333C0E905C380
:10145000C0E90733FFF784FE002808BF80BDBDE860
:101460008040FEF7F3BE0000FEE70000FEE700004C
:10147000704700007047000070470000FFF708B891
:101480007047000040F28000C2F20000FFF794BDF8
:10149000FEE70000B0B582B021F07F4401AD2846E0
:1014A0000121224600F016F928460221224600F0CA
:1014B00011F928460321224600F00CF928460421A0
:1014C000224600F007F902B0B0BD0000F0B581B0CF
:1014D000481EC0B2052809D811A10A5C12A10E5CF1
:1014E00013A10D5C14A10C5C04E000BF00220026D7
:1014F000002500246F463846012100F089F838465F
:101500000221324600F084F8384603212A4600F0D2
:101510007FF838460421224600F07AF801B0F0BD89
:1015200001020102020100000102010201020000A9
:101530000102020102010000010202010102000099
:10154000B0B540F60045C4F201050C46284601211D
:10155000FEF78CFF207028460221FEF787FF60709F
:1015600028464FF48061FEF781FFA07028464FF4B3
:101570000061FEF77BFFE07028464021FEF776FF12
:10158000207128468021FEF771FF607128464FF4D4
:101590008071FEF76BFFA07128464FF40071FEF7D3
:1015A00065FFE071B0BD000010B582B0087A00920E
:1015B000013803288DF8043028D80FF20601DFE83F
:1015C00000F0030B131B00BF684604300121FFF736
:1015D0007DFF02B010BD00BF684604300321FFF755
:1015E00075FF02B010BD00BF684604300421FFF74C
:1015F0006DFF02B010BD00BF6846041D20460021EB
:10160000FFF764FF20460021FFF760FF02B010BD26
:10161000B0B5022A04D0012A06D10024012205E037
:101620000124002202E000BF00220024481E0328FB
:1016300088BFB0BD0FF20401DFE800F0023A1628BF
:1016400040F60000C4F2010000F5806528464FF422
:101650008051FEF711FF28464FF400512246BDE8A5
:10166000B040FEF709BF00BF40F60005C4F2010517
:1016700028464FF40061FEF7FFFE28464FF48051E4
:101680002246BDE8B040FEF7F7BE00BF40F60000BE
:10169000C4F2010000F5806528460821FEF7ECFE43
:1016A000284610212246BDE8B040FEF7E5BE00BF47
:1016B00040F60005C4F2010528464FF48071FEF79C
:1016C000DBFE28464FF400712246BDE8B040FEF72D
:1016D000D3BE000010B54B1E032B88BF10BD0FF208
:1016E0000E0101EB8304100A110CDFE803F003354F
:1016F000172700BF40F60004C9B2C0B2C4F201040B
:10170000814204F580604FF4804135D20122FEF71A
:10171000B3FE04F500604FF4005127E0C9B2C0B237
:10172000814240F60000C4F201004FF400411DD395
:101730000022BDE81040FEF79FBE00BFC9B2C0B294
:10174000814240F60000C4F2010000F580604FF0D5
:1017500020010BD3ECE700BFC9B2C0B2814240F612
:101760000000C4F201004FF48061E1D20122BDE823
:101770001040FEF781BE00BF0022FEF77DFE04F59B
:1017800000604FF400510022BDE81040FEF774BE27
:1017900040F27001C2F200010020887040F2800027
:1017A00040F20A22C2F200000A80FFF7FDBA0000F0
:1017B00070B540F27006C2F20006741DB51D2046D9
:1017C0002946FFF7BDFEB078318841EA0041301D5F
:1017D000FFF760FE3268337920462946BDE8704045
:1017E000FFF7E2BE90B0FEF761FE00240120CDE9D4
:1017F0000B44CDE9094406900A904FF4E0104FF4F1
:10180000803102250F9006A8CDE90714CDE90D51CE
:10181000FFF702F820B1EFF3108072B6FEE700BFC9
:101820000F20CDE901054FF48060CDE9040401A843
:1018300002210394FEF7E8FE20B1EFF3108072B6A8
:10184000FEE700BFFFF740FDFFF7B4FDFFF7ECFD3B
:10185000FFF79EFFFFF7ACFFFCE700000000000071
:10186000000001020304060708090000000001024D
:101870000304010202030405060708090A0B0C0D04
:101880000E0F1010A8180008000000201000000023
:1018900028010008B8180008100000200007000008
:1018A00044010008000000000100000010000000DA
:0818B0000024F4000000000018
:04000005080000ED02
:00000001FF
