:020000040800F2
:10000000B0080020990100080D2700087924000895
:1000100009270008950C000861280008000000006E
:100020000000000000000000000000001927000888
:10003000990C000800000000112700081D27000887
:10004000B3010008B3010008B3010008B3010008C0
:10005000B301000815270008B3010008B301000828
:10006000B3010008B3010008B3010008B3010008A0
:10007000B3010008B3010008B3010008B301000890
:10008000B3010008B3010008B3010008B301000880
:10009000B3010008B3010008B3010008B301000870
:1000A000B3010008B3010008B3010008B301000860
:1000B00025270008312700083D270008B301000864
:1000C000B3010008B3010008B3010008B301000840
:1000D000B3010008B301000855280008B301000867
:1000E000B3010008B3010008B301000800F002F8F2
:1000F00000F042F80AA090E8000C82448344AAF180
:100100000107DA4501D100F037F8AFF2090EBAE87D
:100110000F0013F0010F18BFFB1A43F0010318473B
:10012000FC2B00001C2C0000103A24BF78C878C1BA
:10013000FAD8520724BF30C830C144BF04680C60ED
:10014000704700000023002400250026103A28BF35
:1001500078C1FBD8520728BF30C148BF0B60704739
:100160001FB59DE8030000F00FFC00F02FF91FBD44
:1001700010B500F094F910BD00F0F7F91146FFF743
:10018000EFFF02F063FD00F0A5FB03B4FFF7F0FF03
:1001900003BC00F0EBFC0000094880470948004719
:1001A000FEE7FEE7FEE7FEE7FEE7FEE7FEE7FEE727
:1001B000FEE7FEE704480549054A064B7047000084
:1001C00021270008ED000008B0020020B008002040
:1001D000B0040020B0040020014902F076BD000008
:1001E0006C0000207047704770472DE9F05F0546AE
:1001F00017460C46C86820F4201040F48000C86000
:10020000800602D5084600F0A6FAE06841F28201B5
:100210004FF0FF3A0140022903D0204600F044FA93
:10022000B9E000F42041B1F5004F0FD1C00306D56D
:100230006168E06A884200D80846606006E020698C
:10024000E0626060606900F08AF9A061A068002245
:10025000EEB200280DDAE1688B050AD4C043A06035
:1002600041F490302260E0606068411C616006707B
:10027000AAE0E0689146226040F40050E060206906
:1002800078BB606900F05DF904F124054FF00108C6
:10029000A8B1A08910F4407F08D0E06900F08AF985
:1002A000206118B1E06840F4006017E0C4F81C80D9
:1002B0002561E06820F4407040F480600EE0E06961
:1002C00000F078F900282061F0D0E06840F4006088
:1002D00010F4407FE06002D140F48070E06020695B
:1002E0006060E06825696FF0010BC1051ED561688B
:1002F000E06A884200D80846411B04D022462846BE
:1003000000F0DCF9E8BB1FB1E562C4E9015959E02E
:10031000681CE0626060E069401EA060E06840F434
:100320008030E06030462E70BDE8F09F17B100F4D9
:1003300080320AE06068411C61600670E0680A2E45
:1003400040F48030E06006D00022E16A60688142BB
:1003500003D90B4602E00122F7E70346B4F80CC0CC
:100360005B1B5FEA4C5C04D4D4F81CC09C4500DDE8
:1003700002B3814200D80146002BA1EB0008E562E0
:1003800000E008E0C4E9015907DD22461946284685
:1003900000F094F908B15046C6E7B8F1000F09D053
:1003A000A169E5626560A1EB0800A061E06840F02A
:1003B0001000E06047B16168A069E562491B08442C
:1003C0006560A0615846AFE73046ADE710B54248DA
:1003D000542100F08FFA4148542100F08BFA404834
:1003E000542100F087FA3F493B483C4A3F4B0860A4
:1003F0003D490A603A491960531C0365481C106561
:10040000012008653B48344A39A1784400F0C4F91A
:1004100020B9384878440A3800F065FA37482F4A3E
:1004200035A1784400F0B8F920B9344878440A3846
:1004300000F059FA32482A4A2FA1784400F0ACF96A
:1004400020B92F4878440A3800F04DFA402322485A
:10045000DC000021224600F003F920B12548784451
:10046000543800F040FA1D4822464023002100F095
:10047000F7F820B121487844543800F034FA18488D
:1004800022461023002100F0EBF8002806D01C487B
:100490007844BDE81040563800F025BA10BD104829
:1004A00070B5006D20F001040B4800F0EDF90B4829
:1004B00000F0EAF90A4800F0E7F909E0206D20F0C1
:1004C0000105204600F0E0F9204600F0A2F82C4695
:1004D000002CF3D170BD0000180000206C0000203B
:1004E000C0000020000000200400002008000020C0
:1004F00072000000D828000077000000C428000027
:10050000B02800000EB5CDE9000100F00FFB02900D
:1005100069460120ABBE0EBD08B5694600900220B9
:10052000ABBE08BD1FB58DE8070069460520ABBE10
:1005300004B010BD1FB58DE80F0069460620ABBEA4
:10054000F6E708B5694600900920ABBE08BD1CB5AA
:10055000CDE9000169460A20ABBE1CBD704708B555
:10056000694600900C20ABBE08BD754600F0EAF964
:10057000AE4605006946534620F00700854618B090
:1005800020B5FFF717FEBDE820404FF000064FF002
:1005900000074FF000084FF0000BAC46ACE8C00974
:1005A000ACE8C009ACE8C009ACE8C00921F007011B
:1005B0008D46704770B5064600F0CAF9056806F129
:1005C0000B0020F00704B4429CBF002070BD2B46F6
:1005D0006A68BAB11068A04210D304F108018842D9
:1005E0003CBF5068586007D35168101941601168CA
:1005F000091B016058601460101D70BD13465268DD
:10060000002AE7D12146284600F0AAF90028DED1C9
:1006100070BD70B50446051F00F09AF90068002C03
:1006200014BF446870BD002C18BFAC423CBF2046CC
:100630006468F8D301680A18AA4218BF456003D15C
:100640002A6805461144016028684119A1421CBF6F
:100650006C6070BD6168696021680844286070BD85
:1006600070B5C468A50713D0650211D4B2F5807FB8
:1006700009D0B2F5007F06D0B2F5806F08D1012312
:1006800000F1240106E05D1E6FF07F46B54201D304
:10069000012070BD0161C361416024F470611143A8
:1006A000C160002070BD0000C16821F4001141F05C
:1006B0008001C16000218160016070472DE9F04731
:1006C000814614460E464FF0FF383248D5685769C8
:1006D000054209D03846A169FFF739FF002811DB30
:1006E0002C48C0430540E5602B4632464946384613
:1006F000FFF718FFA16920F00042B21A1144002848
:10070000A16103D02046FFF7CFFF4046BDE8F08748
:1007100070B504460569C06A6168884200D8084619
:10072000E16821F42011E160C90312D5A84208D084
:100730002246411B2846FFF7C1FF10B14FF0FF30A2
:1007400070BD0020E562C4E90150E06820F480300B
:10075000E060002070BD10B50446C06820F02000A5
:10076000E060A16AA06988420DD02046FFF7D0FF63
:10077000E06820F4405040F01000E060A06AA06102
:100780002069E062606044F24001E0688843E06014
:1007900010BD0000100002002DE9F0410C46164685
:1007A000070047D0104600F06FF82078611C6128E0
:1007B0000AD0722802D077283CD102E0012500241B
:1007C00005E00225042402E0082448F2020511F89D
:1007D000010B2B2806D0622809D011F8010C7428CF
:1007E0000AD00BE045F0030544F00204EFE745F0C2
:1007F000040544F00104EAE744F0100438462146B9
:10080000FFF780FE411C15D00021316171604FF46B
:100810000071F560F1617061200704D53046022255
:10082000002100F0E7F8306D40F0010030653046FF
:10083000BDE8F0810020FBE72DE9F0410D460646BA
:10084000104C206DC10704D0410804D020F00104F1
:10085000F7E722460EE05420FFF7ACFE07000ED06B
:10086000206D47F00101084354212065384600F00F
:1008700041F83A4629463046BDE8F0418CE7002071
:10088000D6E70000180000202DE9F04704464FF09D
:1008900000094FF0FF37C568D4E90486A80707D0E0
:1008A0002046FFF735FF3046FFF736FE002802DA14
:1008B0003846BDE8F087280502D54046FFF7A9FE77
:1008C0004C21204600F016F8206D20F00100206534
:1008D0004846EEE710B50446AFF300802046BDE879
:1008E0001040FFF752BC10B500F006F9BDE810400B
:1008F00000F0FCB84FF0000200B51346944696464F
:10090000203922BFA0E80C50A0E80C50B1F1200122
:10091000BFF4F7AF090728BFA0E80C5048BF0CC0D0
:100920005DF804EB890028BF40F8042B08BF70472E
:1009300048BF20F8022B11F0804F18BF00F8012BA0
:100940007047000000487047140100207047000005
:10095000004870471C01002070477047704770477F
:1009600038B504460A4600206946AFF300800028E7
:1009700008BF38BD02460099204600F0FDF801206E
:1009800038BD012000F04CB9F8B5AFF30080054642
:1009900000200C46102000BF0646A819A0420DD921
:1009A000324669460020AFF30080070008BF00F020
:1009B00037F90098A04218BF0546C419FFF7C8FFD1
:1009C00005600746F01D20F007004619284600F094
:1009D0000AF8B44208BFF8BDA21B31463868BDE82A
:1009E000F84000F0C9B800210160C0E9011070476B
:1009F000102070472DE9F041044616460D46476920
:100A0000007B80072ED03846FFF79BFD50BB3EB3DE
:100A1000012E02D0022E25D104E0204600F0C6F8B7
:100A200005441DE03846FFF79AFDE168002841F0D3
:100A30001001E16005DA2046FFF736FE0120BDE82F
:100A4000F081C9030BD56268E16A914200D8114672
:100A5000A26911442269891A814200DD08460544D1
:100A6000002D01DA0220EAE7E16A6068E26881426B
:100A700006D29103E06203D522F4003141F0100266
:100A8000A6690027AE4213DCE16A814201D90B4618
:100A900000E0034603EB060C2369ACEB030CAC450A
:100AA00006DD814201D98C4600E084469C4505D193
:100AB000A760276042F02000A5620DE0AD1BE6694B
:100AC000AE1B8142A66000D90846C01A281A2060D1
:100AD0005819606022F0200003490840E0600020BF
:100AE00084F84870ABE70000BFCFD7FF002801D0E3
:100AF00000F03CB87047000010B5014602A000F0BD
:100B000076F8012010BD0000534947525452454425
:100B10003A2052656469726563743A2063616E2796
:100B200074206F70656E3A200000000010B5431C01
:100B300002E010F8011B71B18107FAD14FF00132C8
:100B400002C88C1A8C4314EAC211F9D0C01A0A06E2
:100B500003D0C01E10BDC01A10BD0A0401D0801EF3
:100B600010BD0902FCD0401E10BD00000149182034
:100B7000ABBEFEE726000200034640688C46002814
:100B800018BF88423CBF03464068F8D31868184431
:100B9000884207D00CF1030020F00700001D411A25
:100BA000521A0146081D0A60FFF733BD10B5014611
:100BB000C268900703D0900607D5886A0AE000F063
:100BC0003DF801210160881E10BD8B6948681844FA
:100BD0000B69C01A91F848301BB191F84910401ABE
:100BE00010BD1103FCD50028FADD401E10BD70B504
:100BF00005460C460A2000E06D1C00F018F835B1DF
:100C000028780028F8D102E0641C00F010F814B134
:100C100020780028F8D1BDE870400A2000F007B81D
:100C200010B500F00FF8BDE81040FFF75FBF08B542
:100C300069468DF800000320ABBE08BD0048704730
:100C40001401002010B5012805D0002103A0FFF7F2
:100C5000CEFF012010BD09A1F8E70000534947521B
:100C6000544D454D3A204F7574206F66206865617C
:100C700070206D656D6F7279000000003A20486544
:100C80006170206D656D6F727920636F727275701F
:100C900074656400FEE7000070470000EFF3108009
:100CA00072B600BFFEE70000014690F8210002285E
:100CB00016D10868D1E90FC3026822F00E02026063
:100CC000026822F001020260012000FA03F2CCF86F
:100CD000042081F821000020002281F820207047A4
:100CE000042088630120002281F820207047000042
:100CF00080B590F82110022924D10268116821F0F2
:100D00000E0111602F211368C4F202018A4240F2E1
:100D10000401C4F2020123F00103136016DD302345
:100D2000C4F202039A421DD04423C4F202039A4241
:100D30001CD05823C4F202039A421DD14FF48033D1
:100D400022E000BF04218163012080BD0823C4F29A
:100D500002039A420ED01C23C4F202039A420BD122
:100D6000102311E04FF480730EE000BF4FF4805366
:100D70000AE000BF012307E001F1680C4FF0807327
:100D8000624508BF4FF480130B60012180F82110E9
:100D9000426B002180F820100AB1904700210846DC
:100DA00080BD00002DE9F04F82B041F20042C4F254
:100DB00001020E680423904208BF0323002E009313
:100DC00000F0F68040F2004C4FF6FF7E0022C4F2A5
:100DD000010C0124C1F2100E4FF0000A4FF000097F
:100DE00047E000BF012502F00C040F27A7402BEAC3
:100DF000070705FA04F43C4343F82640D1F804B051
:100E000040F20C455FEACB23DCF8083054BF23EAFC
:100E1000080343EA0803C4F20105CCF808302B6844
:100E20005FEA8B2454BF23EA080343EA08032B60DC
:100E30005FEA8B34DCF8043054BF23EA080343EA4A
:100E400008035FEACB34CCF80430DCF800304FF014
:100E5000010454BF23EA080343EA0803CCF8003036
:100E60000E680AF1010A36FA0AF302F1040200F0F0
:100E70009F8004FA0AF816EA080FF1D04B68734510
:100E800012DC122B56D8DFE803F0350B45495555D7
:100E900055555555555555555555554D510000BF4E
:100EA000D1F80C9046E000BF4FF6FF75C1F2210566
:100EB000AB420FDC0025C1F21105AB421AD0002570
:100EC000C1F21205AB4215D00025C1F22105AB429B
:100ED00010D02FE00025C1F22205AB420AD0002538
:100EE000C1F23105AB4205D00025C1F23205AB425B
:100EF00020D100BF8B684BB1012B14BFC0F8148008
:100F0000C0F810804FF0080914E000BF4FF004094A
:100F100010E000BFCB6803F108090BE04FF00009B7
:100F200008E000BFCB6803F1040903E0CB6803F1DC
:100F30000C0900BF13460546BAF1080F24BF203B39
:100F400004352E680F279F40BE4309FA03F333434D
:100F50002B60CB79DB067FF583AF41F21804C4F236
:100F6000020423684FEA9A0643F0010323602368D2
:100F700040F6000403F001030193019BACF57E737E
:100F800053F826B0C4F20104A0420FD040F600444A
:100F9000C4F20104A0423FF425AF41F20004C4F2C0
:100FA0000104009DA04208BF02251CE700251AE7A6
:100FB00002B0BDE8F08F00008068084018BF012033
:100FC00070470000002A08BF090401617047000053
:100FD00040F2A820C2F200000068704740F20C0006
:100FE00040F2A821C2F20000C2F2000100780A68B3
:100FF000104408607047000080B542F20000C4F25F
:101000000200016841F010010160032000F092F835
:10101000002000F005F800F027F8002080BD000057
:1010200070B540F20C06C2F2000640F214013278AC
:10103000C2F200014FF47A730968B3FBF2F204467E
:10104000B1FBF2F1084600F067FB0F2C4FF00105F1
:1010500008D838B94FF0FF3021460022002500F0B3
:101060003DF87460284670BD80B582B041F218002A
:10107000C4F202000168002241F001010160016830
:1010800001F0010101910199416841F080514160F5
:101090004068002100F0805000900098052000F08A
:1010A0001DF8052000F00AF80420C4F201000168D0
:1010B000022262F31A61016002B080BD002848BFBD
:1010C000704700F01F01012202FA01F14EF20012F6
:1010D0004009CEF2000242F82010704710B54EF6DB
:1010E0000C5CCEF2000CDCF80030C3F3022E8EF064
:1010F0000704042C28BF0424BEF103034FF0FF3E75
:101100000EFA04F438BF0023A14399400EFA03F30A
:101110009A43114300F00F02043A624409010C3271
:1011200000F16043B0F1FF3FC8BF03F564421170A6
:1011300010BD00004EF60C51CEF200010A684FF6C9
:10114000FF031A4060F30A2242F0806040F0FD7015
:10115000086070472DE9F04381B0002800F08580D9
:1011600042F20008C4F202080446D8F800000D4616
:1011700000F0070088420CD2D8F8000020F00700E9
:101180002843C8F80000D8F8000000F00700A84283
:101190006BD1206841F204098107C4F2020917D516
:1011A000410705D5D9F8001041F4E061C9F80010F5
:1011B000010705D5D9F8001041F46051C9F80010B5
:1011C000D9F80010A26821F0F0011143C9F800100D
:1011D000C00741D1D8F8000000F00700A8420CD9A0
:1011E000D8F8000020F007002843C8F80000D8F81D
:1011F000000000F00700A84237D12068410707D55A
:10120000D9F80010E26821F4E0611143C9F8001038
:10121000000708D5D9F80000216920F4605040EAA1
:10122000C100C9F80000D9F8002002F00C0008281D
:1012300041F20020C0F27A0050D142F60C53C2F3C2
:101240008341C0F60003595CD2033BD440F6001042
:10125000C0F23D00484341E0606802280AD00128FE
:101260002AD159F8041C890308D4012001B0BDE833
:10127000F08300BF59F8041C8901F6D5D9F8001095
:1012800021F003010843C9F80000FFF7A1FE06465C
:1012900041F28837D9F80000616800F00C00B0EB2B
:1012A000810F97D0FFF794FE801BB842F2D903203C
:1012B00001B0BDE8F08300BF59F8041C8907D4D5FC
:1012C000DCE700BFD9F8002042F60A53C2F34042DF
:1012D000C0F600039A5C4843B0FBF2F0D9F8001066
:1012E00042F6F242C1F30311C0F60002515C40F233
:1012F000140220FA01F140F21000C2F2000000686E
:10130000C2F200021160FFF78BFE002001B0BDE8C1
:10131000F083000040F2140041F20401C2F2000028
:10132000C4F202010068096842F60252C1F30221C8
:10133000C0F60002515CC8407047000040F2140043
:1013400041F20401C2F20000C4F20201006809681F
:1013500042F60252C1F3C221C0F60002515CC840FD
:10136000704700002DE9F04182B0002868D00446A3
:10137000007841F20006C007C4F2020625D070686A
:1013800000F00C0004281BD0706800F00C00082846
:1013900002D17068C00313D46068002800F068812F
:1013A000B0F5A02F00F07C81B0F5803F00F07C818B
:1013B000306820F480303060306820F4802076E19E
:1013C0003068800301D56068D0B32078800718D5D5
:1013D000706810F00C0F07D0706800F00C0008283F
:1013E0006ED17068C0036BD43068800702D5206965
:1013F000012825D13068616920F0F80040EAC10079
:101400003060207800071FD42078400732D4E56987
:1014100095B1706800F00C00082840F08F80012D15
:101420000ED07068216A00F480328A4208D1616A65
:1014300000F47010884203D1002002B0BDE8F081B2
:10144000012002B0BDE8F081A069002862D0002030
:10145000C4F242200121C0F88014FFF7B9FD05460F
:10146000706A800700F18C80FFF7B2FD401B0228F4
:10147000F6D92AE1F06910F0805808D1F06940F0FF
:101480008050F061F06900F080500090009847F2C1
:101490000007C4F200073868C00529D4386840F452
:1014A00080703860FFF794FD054600BF3868C005BE
:1014B0001ED4FFF78DFD401B6428F7D905E100BF5E
:1014C0002069002840F20000C4F2422000F082802F
:1014D00001210160FFF77CFD054600BF30688007F1
:1014E0003FF588AFFFF774FD401B0228F6D9ECE00A
:1014F000E068002800F08080052800F0978001282F
:1015000000F09880306A20F001003062306A20F0EC
:10151000040092E00020C4F242200021C0F88014B0
:10152000FFF756FD054600BF706A80077FF56CAF78
:10153000FFF74EFD401B0228F6D9C6E00027C4F293
:10154000422700203866FFF743FD022D05460BD1E8
:101550003068800140F1BE80FFF73AFD401B022851
:101560004FF00300F4D968E7306880017FF564AF7D
:10157000FFF72EFD401B02284FF00300F4D95CE773
:1015800040F21400C2F20000006844F6D351C1F2E8
:101590006201A0FB0101480A019000BF00BF019851
:1015A000411E002801913FF42FAF00BF0198411E5A
:1015B000002801913FF428AF00BF0198411E002888
:1015C00001913FF421AF00BF0198411E0028019115
:1015D000E4D119E700210160FFF7FAFC054600BFDE
:1015E000306880077FF50DAFFFF7F2FC401B022843
:1015F0004FF00300F4D920E7306A20F00100306298
:10160000306A20F004003062FFF7E2FC054641F248
:10161000883700BF306A800720D5FFF7D9FC401B10
:10162000B8424FF00300F5D907E700BF306A40F039
:1016300004003062306A40F001003062FFF7C8FCFD
:10164000054641F2883700BF306A800706D4FFF7AD
:10165000BFFC401BB842F7D937E000BFB8F1000F1C
:101660007FF4D5AEF06920F08050F061CFE600BF86
:10167000306820F480303060306820F480203060A2
:10168000FFF7A6FC054600BF306880037FF59DAEDE
:10169000FFF79EFC401B64284FF00300F4D9CCE612
:1016A000306840F480203060306840F48030306032
:1016B000FFF78EFC054600BF306880033FF585AE1E
:1016C000FFF786FC401B6428F6D9032002B0BDE872
:1016D000F08100BF206AB0F5803F05D17168A26833
:1016E00021F40031114371607168626A21F4741150
:1016F00010430843706001203866FFF769FC044618
:10170000306880013FF598AEFFF762FC001B0228AD
:101710004FF00300F4D990E6411E0020B0EB116FAA
:101720001CBF012070474EF21002CEF20002516041
:101730004EF62351CEF20001F0230B70072190608A
:1017400011607047704700007047000010B590F8B6
:101750003C20012A4FF0020233D080F83D2002687D
:10176000D2F804E0D2F808C00C682EF070032343CE
:1017700040F2FF74C4F20004A24253600ADCB2F1EA
:10178000804F13D040F20043C4F200039A420DD0C0
:1017900011E000BF42F60043C4F201039A4205D0B3
:1017A00040F60003C4F200039A4204D149682CF0C9
:1017B0008003194391600121002280F83D1080F8D8
:1017C0003C20104610BD0000002804BF01207047D7
:1017D00010B5044690F83D0028B9002084F83C007C
:1017E000204600F067F8022084F83D00206840F2AF
:1017F000FF730268C4F2000342F6004C9842C4F240
:10180000010C15DCB0F1804F1AD040F20041C4F257
:101810000001884214D0984218DCB0F1804F1DD0EE
:1018200040F20041C4F20001884217D01AE000BF24
:10183000604505D040F60001C4F200018842EAD1BB
:10184000A16822F070020A439842E6DD604505D0A7
:1018500040F60001C4F20001884203D1216922F45C
:1018600040720A43A36922F08001D4F804E0E268E0
:10187000194360450160C262C0F828E002D1616985
:10188000CCF8301001214161002084F8461084F822
:101890003E1084F83F1084F8401084F8411084F81A
:1018A000421084F8431084F8441084F8451084F8FA
:1018B0003D1010BD10B584B0006840F60001C4F2C0
:1018C000000188421AD040F20041C4F2000188426F
:1018D00024D0B0F1804F1CBF04B010BD41F21C00F9
:1018E000C4F2020001681C2441F00101016000689B
:1018F00000F00100039003981EE000BF41F21C00BD
:10190000C4F2020001681E2441F004010160006875
:1019100000F00400019001980EE000BF41F21C00AD
:10192000C4F2020001681D2441F002010160006858
:1019300000F0020002900298204600210022FFF7EA
:10194000CDFB204604B0BDE81040FFF7B7BB000058
:1019500090F83D1001291CBF01207047022180F83A
:101960003D10006840F2FF72C168C4F2000290426C
:1019700041F00101C16009DCB0F1804F12D040F2AA
:101980000041C4F2000188420CD012E042F600414E
:10199000C4F20101884205D040F60001C4F2000102
:1019A000884206D1816801F00701062904BF0020A2
:1019B0007047016841F0010101600020704700009C
:1019C00080B590F83C20012A4FF0020200F0C2805E
:1019D00080F83D20D0F800C04FF67772DCF8083070
:1019E00023EA0202CCF808200B684F2B28DC1F2BBF
:1019F00044DD202B45D0302B43D0402B40F0AC8031
:101A0000D1F804E0C968DCF82030DCF8202022F0AE
:101A10000102CCF82020DCF8182022F0F00242EA83
:101A2000011123F00A0242EA0E02CCF81810CCF899
:101A30002020DCF8081041F0470121F0300180E05F
:101A40006F2B27DDB3F5005F48D0B3F5805F7AD008
:101A5000702B40F08180D1E901E3C968DCF80820EF
:101A600043EA0E0322F47F4243EA01211143CCF8FA
:101A70000810DCF8081041F0770162E00BB1102B80
:101A80006AD1DCF8081021F07001194341F0070118
:101A900057E000BF502B35D0602B5DD1D1F804E06A
:101AA000C968DCF82030DCF8202022F01002CCF8E5
:101AB0002020DCF8182022F4704242EA013123F0A1
:101AC000A00242EA0E12CCF81810CCF82020DCF864
:101AD000081041F0670121F0100132E0D1E901E383
:101AE000C968DCF8082043EA0E0322F47F4243EA87
:101AF00001211143CCF80810DCF8081041F48041B2
:101B00001FE000BFD1F804E0C968DCF82030DCF841
:101B1000202022F00102CCF82020DCF8182022F04E
:101B2000F00242EA011123F00A0242EA0E02CCF866
:101B30001810CCF82020DCF8081041F0570121F0F3
:101B40002001CCF808100022012180F83D1000216E
:101B500080F83C10104680BD0122F5E77047000078
:101B600010B5016804460869800744BFC8685FEA89
:101B7000807039D40869400744BFC8685FEA407084
:101B80003ED40869000744BFC8685FEA007045D4C6
:101B90000869C00644BFC8685FEAC0604AD40869E3
:101BA000C0071CBFC8685FEAC07051D10869000651
:101BB00044BFC8685FEA006052D40869400644BF69
:101BC000C8685FEA406053D40869800646BFC868A9
:101BD0005FEA806010BD6FF0200220460A61BDE818
:101BE0001040FFF7B1BD00BF6FF002000861012097
:101BF00020778869800743D02046FFF7AFFF45E094
:101C00006FF00400086102202077886910F4407F9B
:101C100040D02046FFF7A2FF42E000BF6FF008006F
:101C2000086104202077C86980073DD02046FFF76F
:101C300095FF3FE06FF01000086108202077C86929
:101C400010F4407F3AD02046FFF788FF3CE000BF09
:101C50006FF001000861204600F03EF82168A5E71A
:101C60006FF0800008612046FFF76CFD2168A4E753
:101C70006FF040000861204600F064F82168A3E797
:101C8000204600F025F8204600F024F821680020C6
:101C900020776FE7204600F01BF8204600F01AF886
:101CA0002168002020776CE7204600F011F82046DC
:101CB00000F010F821680020207769E7204600F046
:101CC00007F8204600F006F821680020207766E734
:101CD000704700007047000040F28812C2F2000214
:101CE0000168126891420FD140F2741CC2F2000CDC
:101CF0009CF802209CF800300132D1B2C91A18BFFA
:101D000011468CF80210016840F2D010C2F20000B7
:101D10000068814206D140F27410C2F20000002235
:101D20000274827340F21820C2F2000000688142FF
:101D300018BF704740F27410C2F2000000214174D5
:101D400081737047704700007047000070470000C3
:101D5000B0B582B0044600680168C368426901F00A
:101D60002F05202D03F0200506D12DB1204602B00D
:101D7000BDE8B04000F0EEBC5FEA017C1EBF02F09F
:101D8000010E03F4907212EB0E0255D1226B012A60
:101D900005D111F0100218BF13F0100236D10A0657
:101DA00022D513F080021FD094F84110212941D18F
:101DB000A168B1F5805F03D12169002900F072822A
:101DC000216A4A1C226209784160E18C01390A04C7
:101DD000E1842FD1C16821F08001C160C16841F068
:101DE0004001C16002B0B0BD490623D513F04001E7
:101DF00020D0C16821F04001C1602021204684F834
:101E0000411002B0BDE8B04000F034BB00210191A8
:101E1000016801914168019101994169490600F108
:101E20008F80A18DE28DE38D002B1CBF891A5FEAA4
:101E300001420CD102B0B0BDCA0718BF13F48072C2
:101E400040F038814A0700F13B8140E1206850E8CA
:101E5000030F226820F4907042E80303DBB120688E
:101E600050E8030F226820F4907042E8030393B116
:101E7000206850E8030F226820F4907042E80303C2
:101E80004BB1206850E8030F226820F4907042E8BC
:101E90000303002BDAD1206850E8050F226820F0F8
:101EA000010042E80503DBB1206850E8050F226815
:101EB00020F0010042E8050393B1206850E8050FC7
:101EC000226820F0010042E805034BB1206850E889
:101ED000050F226820F0010042E80503002BDAD14B
:101EE000202084F8420000202063206850E8030F7F
:101EF000226820F0100042E80303DBB1206850E8BC
:101F0000030F226820F0100042E8030393B1206819
:101F100050E8030F226820F0100042E803034BB1A1
:101F2000206850E8030F226820F0100042E8030305
:101F3000002BDAD1022289B220466263B4E000BFEE
:101F4000E16B0A68526893B2002B3FF473AFA58D22
:101F5000AB42BFF46FAFE2858969202900F09D8014
:101F600050E8030F216820F4807041E80302EAB1D1
:101F7000206850E8030F216820F4807041E80302D4
:101F8000A2B1206850E8030F216820F4807041E876
:101F900003025AB1206850E8030F216820F48070D2
:101FA00041E8030212B12068DAE700BF206850E878
:101FB000050F216820F0010041E80502DAB1206830
:101FC00050E8050F216820F0010041E8050292B1B8
:101FD000206850E8050F216820F0010041E8050263
:101FE0004AB1206850E8050F216820F0010041E85F
:101FF0000502002ADAD1206850E8050F216820F098
:10200000400041E80502DAB1206850E8050F216878
:1020100020F0400041E8050292B1206850E8050F29
:10202000216820F0400041E805024AB1206850E8EC
:10203000050F216820F0400041E80502002ADAD1AE
:10204000202084F8420000202063206850E8030F1D
:10205000216820F0100041E80302DAB1206850E85E
:10206000030F216820F0100041E8030292B12068BC
:1020700050E8030F216820F0100041E803024AB144
:10208000206850E8030F216820F0100041E80302A7
:10209000002ADAD1E06BFEF707FE02206063A08D14
:1020A000E18D401A81B2204602B0BDE8B040FFF792
:1020B0004BBE00BF626C42F0010262644A0706D563
:1020C000BEF1000F03D0626C42F0020262648A0724
:1020D00006D5BEF1000F03D0626C42F004026264C8
:1020E000BCF1000F06D555EA0E0203D0626C42F037
:1020F00008026264626C002A3FF49CAE11F0200179
:1021000018BF002D03D0204600F024FB2068416951
:10211000626C01F0400102F00802891800F0A28010
:1021200050E8030F216820F4907041E80302C2B325
:10213000206850E8030F216820F4907041E8030202
:102140007AB3206850E8030F216820F4907041E8CA
:10215000030232B3206850E8030F216820F4907026
:1021600041E80302EAB12068DAE700BF206850E8DE
:10217000050F216820F0010041E80502DAB120686E
:1021800050E8050F216820F0010041E8050292B1F6
:10219000206850E8050F216820F0010041E80502A1
:1021A0004AB1206850E8050F216820F0010041E89D
:1021B0000502002ADAD1206B012824D1206850E8DA
:1021C000030F216820F0100041E80302DAB1206813
:1021D00050E8030F216820F0100041E8030292B19B
:1021E000206850E8030F216820F0100041E8030246
:1021F0004AB1206850E8030F216820F0100041E840
:102200000302002ADAD1202084F842000020206353
:102210002068416949063FD550E8050F216820F044
:10222000400041E805022AB3206850E8050F216804
:1022300020F0400041E80502E2B1206850E8050FB7
:10224000216820F0400041E805029AB1206850E87A
:10225000050F216820F0400041E8050252B12068D6
:10226000DAE700BF2046FFF771FD0020606402B08E
:10227000B0BD00BFE06B78B142F24971C0F6000119
:102280004163FEF735FD00283FF4D4ADE06B416BB0
:1022900002B0BDE8B0400847204602B0BDE8B040FB
:1022A000FFF754BD216A31F8022B6FF35F224260C1
:1022B00021628AE5002804BF0120704710B504465A
:1022C00090F8410028B9002084F84000204600F032
:1022D00061F8242084F841002068D4E90212C36820
:1022E00023F40053C360036923F440531A4302618B
:1022F000D4E904231143C268194341F20C639A43A1
:102300001143C1604169A26921F44071114343F650
:102310000002C4F201029042416103D0FEF7FAFFCD
:1023200002E000BFFFF70AF86268192148439100F4
:10233000B0FBF1F048F21F51C5F2EB11A0FB0123F5
:102340005A096FF0630302FB0300322303EB001012
:10235000A0FB0101F02303EA5113206803EB0212F2
:10236000C1F3431111448160016921F4904101617D
:10237000416921F02A014161C16841F40051C16005
:1023800000202021606484F8411084F842106063CA
:1023900010BD000070B586B040F60004C4F2010420
:1023A0000068A4F5444100268842049602D006B095
:1023B00070BD00BF41F21800C4F20200416802ADD6
:1023C00041F400314160416801F40031019101990B
:1023D000016841F0040101600068294600F0040032
:1023E00001900198042002900220039003200590A0
:1023F0002046FEF7D7FC0820CDE9020620462946F4
:102400000496FEF7CFFC262000210022FEF766FE90
:102410002620FEF753FE06B070BD000090F8423053
:10242000202B1CBF0220704700294FF0010318BF6A
:10243000002A01D1184670470023036381622221DC
:102440008285C285436480F842100169006819B131
:10245000C16841F48071C1604169002341F001010C
:102460004161C16841F02001C16018467047000019
:102470007047000070470000FEE700002DE9F04FB4
:1024800085B041F21800C4F20200016840F600482D
:1024900041F0100101600168C4F2010801F010016F
:1024A00001910199016808F5806641F02001016001
:1024B0000168012201F020010191019901684FF4A6
:1024C000005741F0040101600168012401F004019A
:1024D00001910199016841F00801016000684FF421
:1024E000005100F00800019001983046FEF76AFDA7
:1024F000404647F23801012247F2380AFEF762FDF2
:10250000A8F5806528464FF41F4101224FF41F496A
:10251000FEF758FDCDE9017401AF4FF0030B3046D3
:1025200039460394CDF810B0FEF73CFC40F6C3707A
:1025300001900020CDE9020440463946FEF732FC06
:1025400040463946CDE901A4CDE9034BFEF72AFC0C
:1025500028463946CDE90194CDE9034BFEF722FC2C
:1025600005B0BDE8F08F000080B586B040F288105D
:102570000021C2F200004FF0630C0591CDE9031178
:10258000CDE900114FF0804240F2CF23C0E9021C98
:1025900001618021C0E900238161FFF715F900285E
:1025A00018BFFEF77BFB4FF48050029040F288107A
:1025B000C2F2000002A9FFF703FA002818BFFEF7D5
:1025C0006DFB40F28810C2F200006946FFF7BEF8CA
:1025D000002818BFFEF762FB06B080BD80B586B04C
:1025E00040F2D0100021C2F2000040F2004241F25D
:1025F000873C0591CDE90311CDE90011C4F2000239
:1026000041F61F43C0E9021C01618021C0E900239B
:102610008161FFF7D9F8002818BFFEF73FFB4FF4A0
:102620008050029040F2D010C2F2000002A9FFF7E1
:10263000C7F9002818BFFEF731FB40F2D010C2F2F4
:1026400000006946FFF782F8002818BFFEF726FB56
:1026500006B080BD80B586B040F218200021C2F2DD
:10266000000040F6000242F20F7C0591CDE9031113
:10267000CDE90011C4F2000241F61F43C0E9021C7B
:1026800001618021C0E900238161FFF79DF80028E6
:1026900018BFFEF703FB4FF48050029040F2182061
:1026A000C2F2000002A9FFF78BF9002818BFFEF75D
:1026B000F5FA40F21820C2F200006946FFF746F82A
:1026C000002818BFFEF7EAFA06B080BD80B540F2D8
:1026D000602044F20041C2F20000C4F20001002375
:1026E0004FF00C0C4FF4E13280E80E00C0E90333E8
:1026F000C0E905C3C361FFF7DDFD002808BF80BD49
:10270000BDE88040FEF7CABAFEE70000FEE7000021
:10271000704700007047000070470000FEF75EBC85
:102720007047000040F28810C2F20000FFF718BAAC
:1027300040F2D010C2F20000FFF712BA40F21820A7
:10274000C2F20000FFF70CBA406A0021C185C184C3
:10275000FFF7FCBA81B090F84210222920D183689B
:10276000B3F5805F08D10169002965D000F1280127
:102770000A6803685B680AE0014651F8282F13B91C
:102780000369002BF5D003685B6803F07F031370C7
:102790000A6801320A60C18D01390A04C18501D07D
:1027A00001B070470168CA6822F02002CA60CA6896
:1027B00022F48072CA604A6922F001024A61202232
:1027C00080F8422000224263036B012B3ED102635A
:1027D00051E8031F026821F0100142E80313016869
:1027E000DBB151E8031F026821F0100142E8031336
:1027F000016893B151E8031F026821F0100142E81B
:10280000031301684BB151E8031F026821F0100166
:1028100042E803130168002BDAD10A68D20606D514
:10282000002200920A680092496800910099818D07
:1028300001B0FFF789BA00BF0168826A49686FF387
:102840005F2122F8021B8262A5E700BF01B0FFF7FB
:102850000FBE000040F26020C2F20000FFF778BA1D
:10286000FEE70000B0B582B021F07F4401AD2846FC
:102870000121224600F03CF928460221224600F0C0
:1028800037F928460321224600F032F92846042170
:10289000224600F02DF902B0B0BD000070B582B044
:1028A000481EC0B2052805D80FA10D5C10A10C5C14
:1028B00002E000BF0025002401AE304601212A4677
:1028C00000F0B4F8304602212A4600F0AFF8304656
:1028D0000321224600F0AAF830460421224600F0E7
:1028E000A5F802B070BD00BF0102010201020000A4
:1028F000010202010102000070B508780C4668B1BF
:10290000607858B1A078A8B3607938B1A07928B1BF
:10291000E07918B1207988B3E07878B36079F8B1BC
:10292000002020724920FDF757FC40F2602604F198
:102930000905C2F2000600BF304629460122FFF712
:102940006DFD0028F8D14F20FDF746FC2878A0F156
:102950003501C9B202299CBF3038207270BD00BF5A
:10296000A0790028DCD0E0790028D9D0022020729C
:1029700070BD00BF0120207270BD00BF0320207217
:1029800070BD0000B0B540F60045C4F201050C462C
:1029900028460121FEF710FB0138B0FA80F040090B
:1029A000207028460221FEF707FB0138B0FA80F0BC
:1029B0004009607028464FF48061FEF7FDFA013847
:1029C000B0FA80F04009A07028464FF40061FEF78D
:1029D000F3FA0138B0FA80F04009E070284640214F
:1029E000FEF7EAFA0138B0FA80F040092071284673
:1029F0008021FEF7E1FA0138B0FA80F040096071F9
:102A000028464FF48071FEF7D7FA0138B0FA80F00B
:102A10004009A07128464FF40071FEF7CDFA013845
:102A2000B0FA80F04009E071B0BD0000B0B5022AF4
:102A300004D0012A06D10024012205E0012400224D
:102A400002E000BF00220024481E032888BFB0BD5A
:102A50000FF20401DFE800F0023A162840F6000009
:102A6000C4F2010000F5806528464FF48051FEF75E
:102A7000A9FA28464FF400512246BDE8B040FEF7BF
:102A8000A1BA00BF40F60005C4F2010528464FF484
:102A90000061FEF797FA28464FF480512246BDE8C0
:102AA000B040FEF78FBA00BF40F60000C4F201004C
:102AB00000F5806528460821FEF784FA2846102193
:102AC0002246BDE8B040FEF77DBA00BF40F60005E3
:102AD000C4F2010528464FF48071FEF773FA2846C8
:102AE0004FF400712246BDE8B040FEF76BBA00001B
:102AF00010B54B1E032B88BF10BD0FF20E0101EB6A
:102B00008304100A110CDFE803F00335172700BF18
:102B100040F60004C9B2C0B2C4F20104814204F517
:102B200080604FF4804135D20122FEF74BFA04F564
:102B300000604FF4005127E0C9B2C0B2814240F6B4
:102B40000000C4F201004FF400411DD30022BDE893
:102B50001040FEF737BA00BFC9B2C0B2814240F69A
:102B60000000C4F2010000F580604FF020010BD39B
:102B7000ECE700BFC9B2C0B2814240F60000C4F227
:102B800001004FF48061E1D20122BDE81040FEF760
:102B900019BA00BF0022FEF715FA04F500604FF4E1
:102BA00000510022BDE81040FEF70CBA40F274114B
:102BB000C2F2000140F20A20088040F28810002290
:102BC000C2F200008A700A82FEF7C2BE70B540F2FF
:102BD0007414C2F20004A07BA0F1080111F1040FEB
:102BE0000CD8651DA61D28463146FFF7CBFE2846AA
:102BF00031462246FFF780FE1AE000BF411F01293F
:102C00000AD8217C41B940F2D010C2F20000FEF790
:102C10009FFE012020740BE0072809D1607C38B9A1
:102C200040F21820C2F20000FEF792FE012060740C
:102C3000A0782188251D41EA00412846FFF712FEB1
:102C4000A17B2846BDE87040FFF728BE90B0FEF794
:102C5000D3F900240120CDE90B44CDE909440690C5
:102C60000A904FF4E0104FF4803102250F9006A82F
:102C7000CDE90714CDE90D51FEF774FB20B1EFF358
:102C8000108072B6FEE700BF0F20CDE901054FF4BA
:102C90008060CDE9040401A802210394FEF75AFAEA
:102CA00020B1EFF3108072B6FEE700BFFFF7E6FB3E
:102CB000FFF75AFCFFF70AFDFFF790FCFFF7CAFC8D
:102CC000FFF774FFFFF782FFFCE78A68002A02DC47
:102CD0000022FDF78ABA521E8A604A68C0B2531CAD
:102CE0004B60107070473A7474003A7474003A7410
:102CF0007400000000000000000001020304060749
:102D00000809000000000102030401020203040597
:102D1000060708090A0B0C0D0E0F1010402D0008B5
:102D2000000000201800000028010008582D0008AD
:102D3000180000209808000044010008000000006E
:102D40000000000000000000000000000100000082
:082D5000100000000024F40053
:04000005080000ED02
:00000001FF
